{
  "contractName": "RUSD",
  "abi": [
    {
      "inputs": [
        {
          "internalType": "uint256",
          "name": "tokenSupply",
          "type": "uint256"
        },
        {
          "internalType": "string",
          "name": "tokenName",
          "type": "string"
        },
        {
          "internalType": "string",
          "name": "tokenSymbol",
          "type": "string"
        },
        {
          "internalType": "uint8",
          "name": "tokenDecimals",
          "type": "uint8"
        }
      ],
      "stateMutability": "nonpayable",
      "type": "constructor"
    },
    {
      "anonymous": false,
      "inputs": [
        {
          "indexed": true,
          "internalType": "address",
          "name": "owner",
          "type": "address"
        },
        {
          "indexed": true,
          "internalType": "address",
          "name": "spender",
          "type": "address"
        },
        {
          "indexed": false,
          "internalType": "uint256",
          "name": "tokenAmount",
          "type": "uint256"
        }
      ],
      "name": "Approval",
      "type": "event"
    },
    {
      "anonymous": false,
      "inputs": [
        {
          "indexed": true,
          "internalType": "address",
          "name": "sender",
          "type": "address"
        },
        {
          "indexed": true,
          "internalType": "address",
          "name": "recipient",
          "type": "address"
        },
        {
          "indexed": false,
          "internalType": "uint256",
          "name": "amount",
          "type": "uint256"
        }
      ],
      "name": "Transfer",
      "type": "event"
    },
    {
      "inputs": [],
      "name": "decimals",
      "outputs": [
        {
          "internalType": "uint8",
          "name": "",
          "type": "uint8"
        }
      ],
      "stateMutability": "view",
      "type": "function",
      "constant": true
    },
    {
      "inputs": [],
      "name": "name",
      "outputs": [
        {
          "internalType": "string",
          "name": "",
          "type": "string"
        }
      ],
      "stateMutability": "view",
      "type": "function",
      "constant": true
    },
    {
      "inputs": [],
      "name": "owner",
      "outputs": [
        {
          "internalType": "address",
          "name": "",
          "type": "address"
        }
      ],
      "stateMutability": "view",
      "type": "function",
      "constant": true
    },
    {
      "inputs": [],
      "name": "symbol",
      "outputs": [
        {
          "internalType": "string",
          "name": "",
          "type": "string"
        }
      ],
      "stateMutability": "view",
      "type": "function",
      "constant": true
    },
    {
      "inputs": [],
      "name": "totalSupply",
      "outputs": [
        {
          "internalType": "uint256",
          "name": "",
          "type": "uint256"
        }
      ],
      "stateMutability": "view",
      "type": "function",
      "constant": true
    },
    {
      "inputs": [
        {
          "internalType": "address",
          "name": "newOwner",
          "type": "address"
        }
      ],
      "name": "transferOwnership",
      "outputs": [],
      "stateMutability": "nonpayable",
      "type": "function"
    },
    {
      "inputs": [
        {
          "internalType": "address",
          "name": "accountAddress",
          "type": "address"
        }
      ],
      "name": "balanceOf",
      "outputs": [
        {
          "internalType": "uint256",
          "name": "",
          "type": "uint256"
        }
      ],
      "stateMutability": "view",
      "type": "function",
      "constant": true
    },
    {
      "inputs": [
        {
          "internalType": "address",
          "name": "owner",
          "type": "address"
        },
        {
          "internalType": "address",
          "name": "spender",
          "type": "address"
        }
      ],
      "name": "allowance",
      "outputs": [
        {
          "internalType": "uint256",
          "name": "",
          "type": "uint256"
        }
      ],
      "stateMutability": "view",
      "type": "function",
      "constant": true
    },
    {
      "inputs": [
        {
          "internalType": "address",
          "name": "recipient",
          "type": "address"
        },
        {
          "internalType": "uint256",
          "name": "amount",
          "type": "uint256"
        }
      ],
      "name": "transfer",
      "outputs": [
        {
          "internalType": "bool",
          "name": "",
          "type": "bool"
        }
      ],
      "stateMutability": "nonpayable",
      "type": "function"
    },
    {
      "inputs": [
        {
          "internalType": "address",
          "name": "spender",
          "type": "address"
        },
        {
          "internalType": "uint256",
          "name": "tokenAmount",
          "type": "uint256"
        }
      ],
      "name": "approve",
      "outputs": [
        {
          "internalType": "bool",
          "name": "",
          "type": "bool"
        }
      ],
      "stateMutability": "nonpayable",
      "type": "function"
    },
    {
      "inputs": [
        {
          "internalType": "address",
          "name": "sourceAddress",
          "type": "address"
        },
        {
          "internalType": "address",
          "name": "destinationAddress",
          "type": "address"
        },
        {
          "internalType": "uint256",
          "name": "tokenAmount",
          "type": "uint256"
        }
      ],
      "name": "transferFrom",
      "outputs": [
        {
          "internalType": "bool",
          "name": "",
          "type": "bool"
        }
      ],
      "stateMutability": "nonpayable",
      "type": "function"
    }
  ],
  "bytecode": "0x60806040523480156200001157600080fd5b506040516200140c3803806200140c833981810160405281019062000037919062000277565b336000806101000a81548173ffffffffffffffffffffffffffffffffffffffff021916908373ffffffffffffffffffffffffffffffffffffffff160217905550836001819055508260029080519060200190620000969291906200011b565b508160039080519060200190620000af9291906200011b565b5080600460006101000a81548160ff021916908360ff160217905550600154600560003373ffffffffffffffffffffffffffffffffffffffff1673ffffffffffffffffffffffffffffffffffffffff1681526020019081526020016000208190555050505050620004f6565b8280546200012990620003d3565b90600052602060002090601f0160209004810192826200014d576000855562000199565b82601f106200016857805160ff191683800117855562000199565b8280016001018555821562000199579182015b82811115620001985782518255916020019190600101906200017b565b5b509050620001a89190620001ac565b5090565b5b80821115620001c7576000816000905550600101620001ad565b5090565b6000620001e2620001dc8462000350565b62000327565b905082815260208101848484011115620002015762000200620004a2565b5b6200020e8482856200039d565b509392505050565b600082601f8301126200022e576200022d6200049d565b5b815162000240848260208601620001cb565b91505092915050565b6000815190506200025a81620004c2565b92915050565b6000815190506200027181620004dc565b92915050565b60008060008060808587031215620002945762000293620004ac565b5b6000620002a48782880162000249565b945050602085015167ffffffffffffffff811115620002c857620002c7620004a7565b5b620002d68782880162000216565b935050604085015167ffffffffffffffff811115620002fa57620002f9620004a7565b5b620003088782880162000216565b92505060606200031b8782880162000260565b91505092959194509250565b60006200033362000346565b905062000341828262000409565b919050565b6000604051905090565b600067ffffffffffffffff8211156200036e576200036d6200046e565b5b6200037982620004b1565b9050602081019050919050565b6000819050919050565b600060ff82169050919050565b60005b83811015620003bd578082015181840152602081019050620003a0565b83811115620003cd576000848401525b50505050565b60006002820490506001821680620003ec57607f821691505b602082108114156200040357620004026200043f565b5b50919050565b6200041482620004b1565b810181811067ffffffffffffffff821117156200043657620004356200046e565b5b80604052505050565b7f4e487b7100000000000000000000000000000000000000000000000000000000600052602260045260246000fd5b7f4e487b7100000000000000000000000000000000000000000000000000000000600052604160045260246000fd5b600080fd5b600080fd5b600080fd5b600080fd5b6000601f19601f8301169050919050565b620004cd8162000386565b8114620004d957600080fd5b50565b620004e78162000390565b8114620004f357600080fd5b50565b610f0680620005066000396000f3fe608060405234801561001057600080fd5b50600436106100a95760003560e01c806370a082311161007157806370a08231146101685780638da5cb5b1461019857806395d89b41146101b6578063a9059cbb146101d4578063dd62ed3e14610204578063f2fde38b14610234576100a9565b806306fdde03146100ae578063095ea7b3146100cc57806318160ddd146100fc57806323b872dd1461011a578063313ce5671461014a575b600080fd5b6100b6610250565b6040516100c39190610c76565b60405180910390f35b6100e660048036038101906100e19190610b8b565b6102de565b6040516100f39190610c5b565b60405180910390f35b61010461041c565b6040516101119190610c98565b60405180910390f35b610134600480360381019061012f9190610b38565b610426565b6040516101419190610c5b565b60405180910390f35b610152610624565b60405161015f9190610cb3565b60405180910390f35b610182600480360381019061017d9190610acb565b610637565b60405161018f9190610c98565b60405180910390f35b6101a0610680565b6040516101ad9190610c40565b60405180910390f35b6101be6106a4565b6040516101cb9190610c76565b60405180910390f35b6101ee60048036038101906101e99190610b8b565b610732565b6040516101fb9190610c5b565b60405180910390f35b61021e60048036038101906102199190610af8565b610919565b60405161022b9190610c98565b60405180910390f35b61024e60048036038101906102499190610acb565b6109a0565b005b6002805461025d90610dfc565b80601f016020809104026020016040519081016040528092919081815260200182805461028990610dfc565b80156102d65780601f106102ab576101008083540402835291602001916102d6565b820191906000526020600020905b8154815290600101906020018083116102b957829003601f168201915b505050505081565b600081600560003373ffffffffffffffffffffffffffffffffffffffff1673ffffffffffffffffffffffffffffffffffffffff16815260200190815260200160002054101561032c57600080fd5b81600660003373ffffffffffffffffffffffffffffffffffffffff1673ffffffffffffffffffffffffffffffffffffffff16815260200190815260200160002060008573ffffffffffffffffffffffffffffffffffffffff1673ffffffffffffffffffffffffffffffffffffffff168152602001908152602001600020819055508273ffffffffffffffffffffffffffffffffffffffff163373ffffffffffffffffffffffffffffffffffffffff167f8c5be1e5ebec7d5bd14f71427d1e84f3dd0314c0f7b2291e5b200ac8c7c3b9258460405161040a9190610c98565b60405180910390a36001905092915050565b6000600154905090565b600081600560008673ffffffffffffffffffffffffffffffffffffffff1673ffffffffffffffffffffffffffffffffffffffff16815260200190815260200160002054101561047457600080fd5b8161047f8533610919565b101561048a57600080fd5b6104dc82600560008773ffffffffffffffffffffffffffffffffffffffff1673ffffffffffffffffffffffffffffffffffffffff16815260200190815260200160002054610a7590919063ffffffff16565b600560008673ffffffffffffffffffffffffffffffffffffffff1673ffffffffffffffffffffffffffffffffffffffff1681526020019081526020016000208190555061057182600560008673ffffffffffffffffffffffffffffffffffffffff1673ffffffffffffffffffffffffffffffffffffffff16815260200190815260200160002054610a8b90919063ffffffff16565b600560008573ffffffffffffffffffffffffffffffffffffffff1673ffffffffffffffffffffffffffffffffffffffff168152602001908152602001600020819055508273ffffffffffffffffffffffffffffffffffffffff168473ffffffffffffffffffffffffffffffffffffffff167fddf252ad1be2c89b69c2b068fc378daa952ba7f163c4a11628f55a4df523b3ef846040516106119190610c98565b60405180910390a3600190509392505050565b600460009054906101000a900460ff1681565b6000600560008373ffffffffffffffffffffffffffffffffffffffff1673ffffffffffffffffffffffffffffffffffffffff168152602001908152602001600020549050919050565b60008054906101000a900473ffffffffffffffffffffffffffffffffffffffff1681565b600380546106b190610dfc565b80601f01602080910402602001604051908101604052809291908181526020018280546106dd90610dfc565b801561072a5780601f106106ff5761010080835404028352916020019161072a565b820191906000526020600020905b81548152906001019060200180831161070d57829003601f168201915b505050505081565b600081600560003373ffffffffffffffffffffffffffffffffffffffff1673ffffffffffffffffffffffffffffffffffffffff16815260200190815260200160002054101561078057600080fd5b6107d282600560003373ffffffffffffffffffffffffffffffffffffffff1673ffffffffffffffffffffffffffffffffffffffff16815260200190815260200160002054610a7590919063ffffffff16565b600560003373ffffffffffffffffffffffffffffffffffffffff1673ffffffffffffffffffffffffffffffffffffffff1681526020019081526020016000208190555061086782600560008673ffffffffffffffffffffffffffffffffffffffff1673ffffffffffffffffffffffffffffffffffffffff16815260200190815260200160002054610a8b90919063ffffffff16565b600560008573ffffffffffffffffffffffffffffffffffffffff1673ffffffffffffffffffffffffffffffffffffffff168152602001908152602001600020819055508273ffffffffffffffffffffffffffffffffffffffff163373ffffffffffffffffffffffffffffffffffffffff167fddf252ad1be2c89b69c2b068fc378daa952ba7f163c4a11628f55a4df523b3ef846040516109079190610c98565b60405180910390a36001905092915050565b6000600660008473ffffffffffffffffffffffffffffffffffffffff1673ffffffffffffffffffffffffffffffffffffffff16815260200190815260200160002060008373ffffffffffffffffffffffffffffffffffffffff1673ffffffffffffffffffffffffffffffffffffffff16815260200190815260200160002054905092915050565b60008054906101000a900473ffffffffffffffffffffffffffffffffffffffff1673ffffffffffffffffffffffffffffffffffffffff163373ffffffffffffffffffffffffffffffffffffffff16146109f857600080fd5b600073ffffffffffffffffffffffffffffffffffffffff168173ffffffffffffffffffffffffffffffffffffffff161415610a3257600080fd5b806000806101000a81548173ffffffffffffffffffffffffffffffffffffffff021916908373ffffffffffffffffffffffffffffffffffffffff16021790555050565b60008183610a839190610d40565b905092915050565b60008183610a999190610cea565b905092915050565b600081359050610ab081610ea2565b92915050565b600081359050610ac581610eb9565b92915050565b600060208284031215610ae157610ae0610e8c565b5b6000610aef84828501610aa1565b91505092915050565b60008060408385031215610b0f57610b0e610e8c565b5b6000610b1d85828601610aa1565b9250506020610b2e85828601610aa1565b9150509250929050565b600080600060608486031215610b5157610b50610e8c565b5b6000610b5f86828701610aa1565b9350506020610b7086828701610aa1565b9250506040610b8186828701610ab6565b9150509250925092565b60008060408385031215610ba257610ba1610e8c565b5b6000610bb085828601610aa1565b9250506020610bc185828601610ab6565b9150509250929050565b610bd481610d74565b82525050565b610be381610d86565b82525050565b6000610bf482610cce565b610bfe8185610cd9565b9350610c0e818560208601610dc9565b610c1781610e91565b840191505092915050565b610c2b81610db2565b82525050565b610c3a81610dbc565b82525050565b6000602082019050610c556000830184610bcb565b92915050565b6000602082019050610c706000830184610bda565b92915050565b60006020820190508181036000830152610c908184610be9565b905092915050565b6000602082019050610cad6000830184610c22565b92915050565b6000602082019050610cc86000830184610c31565b92915050565b600081519050919050565b600082825260208201905092915050565b6000610cf582610db2565b9150610d0083610db2565b9250827fffffffffffffffffffffffffffffffffffffffffffffffffffffffffffffffff03821115610d3557610d34610e2e565b5b828201905092915050565b6000610d4b82610db2565b9150610d5683610db2565b925082821015610d6957610d68610e2e565b5b828203905092915050565b6000610d7f82610d92565b9050919050565b60008115159050919050565b600073ffffffffffffffffffffffffffffffffffffffff82169050919050565b6000819050919050565b600060ff82169050919050565b60005b83811015610de7578082015181840152602081019050610dcc565b83811115610df6576000848401525b50505050565b60006002820490506001821680610e1457607f821691505b60208210811415610e2857610e27610e5d565b5b50919050565b7f4e487b7100000000000000000000000000000000000000000000000000000000600052601160045260246000fd5b7f4e487b7100000000000000000000000000000000000000000000000000000000600052602260045260246000fd5b600080fd5b6000601f19601f8301169050919050565b610eab81610d74565b8114610eb657600080fd5b50565b610ec281610db2565b8114610ecd57600080fd5b5056fea2646970667358221220bcb7e79036a5d5381c5a4b9449260e3c4cfff2b1dd9b781806c5ee47b008c55e64736f6c63430008060033",
  "immutableReferences": {},
  "source": "// SPDX-License-Identifier: MIT\n\npragma solidity 0.8.6;\n\nimport './ERC20.sol';\nimport \"@openzeppelin/contracts/utils/math/SafeMath.sol\";\n\ncontract RUSD is ERC20 {\n\n    using SafeMath for uint;\n\n    string public name;\n    string public symbol;\n    uint8 public decimals;\n\n    mapping(address => uint) balances;\n    mapping(address => mapping(address => uint)) allowances;\n\n    constructor(uint tokenSupply, string memory tokenName, string memory tokenSymbol, uint8 tokenDecimals) {\n        _totalSupply = tokenSupply;\n        \n        name = tokenName;\n        symbol = tokenSymbol;\n        decimals = tokenDecimals;\n\n        balances[msg.sender] = _totalSupply;\n    }\n\n    function balanceOf(address accountAddress) public override view returns (uint) {\n        return balances[accountAddress];\n    }\n\n    function allowance(address owner, address spender) public override view returns (uint) {\n        return allowances[owner][spender];\n    }\n\n    function transfer(address recipient, uint amount) public override returns (bool) {\n        require(balances[msg.sender] >= amount);\n\n        balances[msg.sender] = balances[msg.sender].sub(amount);\n        balances[recipient] = balances[recipient].add(amount);\n        emit Transfer(msg.sender, recipient, amount);\n\n        return true;\n    }\n\n    function approve(address spender, uint tokenAmount) public override returns (bool) {\n        require(balances[msg.sender] >= tokenAmount);\n\n        allowances[msg.sender][spender] = tokenAmount;\n        emit Approval(msg.sender, spender, tokenAmount);\n\n        return true;\n    }\n\n    function transferFrom(address sourceAddress, address destinationAddress, uint tokenAmount) public override returns (bool) {\n        require(balances[sourceAddress] >= tokenAmount);\n        require(allowance(sourceAddress, msg.sender) >= tokenAmount);\n\n        balances[sourceAddress] = balances[sourceAddress].sub(tokenAmount);\n        balances[destinationAddress] = balances[destinationAddress].add(tokenAmount);\n\n        emit Transfer(sourceAddress, destinationAddress, tokenAmount);\n\n        return true;\n    }\n}",
  "sourcePath": "/Users/rostykstakhiv/Blockchain/ETH/RUSD/contracts/RUSD.sol",
  "compiler": {
    "name": "solc",
    "version": "0.8.6+commit.11564f7e.Emscripten.clang"
  },
  "schemaVersion": "3.4.2",
  "updatedAt": "2021-10-07T10:24:55.896Z",
  "networkType": "ethereum",
  "devdoc": {
    "kind": "dev",
    "methods": {},
    "version": 1
  },
  "userdoc": {
    "kind": "user",
    "methods": {},
    "version": 1
  }
}